:100100001201000200000040B404031000000102CC
:020110000001EC
:0A0114000A0600020000004001008E
:1001200009028700010100A0320904000001FF005C
:100130000000070582020002000904000101FF001F
:100140000000070502020002000904000202FF008D
:1001500000000705820200020007050602000200F7
:100160000904000301FF00000007058201001401DB
:100170000904000401FF000000070502010014014A
:100180000904000501FF00000007058201000401C9
:100190000904000602FF00000007058201000401B7
:0701A0000705060100040140
:1001A80009024900010100A0320904000001FF0012
:1001B8000000070582024000010904000101FF0058
:1001C8000000070502024000010904000201FF00C7
:1001D800000007058201FF03010904000301FF0075
:0901E800000007050201FF0301FC
:1001F20004030904100343007900700072006500D3
:10020200730073001403430059002D00530074005F
:0A0212007200650061006D0000003D
:0A11FF0000010202030304040505C9
:100A1600E4F513F512F511F510C203C200C202C2C5
:100A260001120DB87E017F008E238F24752B017570
:100A36002C14752101752220752901752AA8752D9A
:100A460001752EF2EE54E07003020B60751400750A
:100A560015808E168F17C3741A9FFF74029ECF24BB
:100A660002CF3400FEE48F0F8E0EF50DF50CF50B5C
:100A7600F50AF509F508AF0FAE0EAD0DAC0CAB0BD4
:100A8600AA0AA909A808C3120EC9502AE515250BFA
:100A9600F582E514350AF58374CDF0AF0BAE0AADD9
:100AA60009AC08E47B01FAF9F8120EBC8F0B8E0A2A
:100AB6008D098C0880C0E4F50BF50AF509F508AF39
:100AC6000FAE0EAD0DAC0CAB0BAA0AA909A808C354
:100AD600120EC95033AE0AAF0BE5172FF582E51695
:100AE6003EF583E0FDE5152FF582E5143EF583ED31
:100AF600F0AD09AC08E47B01FAF9F8120EBC8F0BD5
:100B06008E0A8D098C0880B78514238515247400F8
:100B16002480FF740134FFFEC3E52C9FF52CE52BE2
:100B26009EF52BC3E5269FF526E5259EF525C3E50F
:100B3600289FF528E5279EF527C3E5229FF522E5A0
:100B4600219EF521C3E52A9FF52AE5299EF529C3AD
:100B5600E52E9FF52EE52D9EF52DD2E843D8209063
:100B6600E668E04409F090E65CE0443DF0D2AF90E0
:100B7600E680E020E105D2041200D190E680E05440
:100B8600F7F0538EF8C203121211300105120599BF
:100B9600C201300329120CFE5024C20312110B208D
:100BA600001690E682E030E704E020E1EF90E6826E
:100BB600E030E604E020E0E4120CD212121D120826
:030BC6001F80C7C6
:010BC9002209
:1005990090E6B9E0120EDA066100070A01079F0327
:1005A90005BC06065B0806550906490A064F0B00F5
:1005B90000080B12121F400302081790E6BBE02443
:1005C900FE602C14604724FD601614603124067007
:1005D90065E52390E6B3F0E52490E6B4F002081748
:1005E900E52B90E6B3F0E52C90E6B4F0020817E5A8
:1005F9002590E6B3F0E52690E6B4F0020817E52762
:1006090090E6B3F0E52890E6B4F002081790E6BA50
:10061900E0FF1210DFAA06A9077B01EA49600DEE87
:1006290090E6B3F0EF90E6B4F002081790E6A0E088
:100639004401F002081790E6A0E04401F00208170F
:100649001211ED02081712021C02081712120902F0
:1006590008171211DB0208171212214003020817AA
:1006690090E6B8E0247F602B14603C24026003020A
:100679000700A200E433FF25E0FFA202E4334F9014
:10068900E740F0E4A3F090E68AF090E68B7402F07C
:10069900020817E490E740F0A3F090E68AF090E6AC
:1006A9008B7402F002081790E6BCE0547EFF7E00CE
:1006B900E0D3948040067C007D0180047C007D00AD
:1006C900EC4EFEED4F24FFF58274113EF583E49361
:1006D900FF3395E0FEEF24A1FFEE34E68F82F58328
:1006E900E0540190E740F0E4A3F090E68AF090E648
:1006F9008B7402F002081790E6A0E04401F00208AA
:1007090017121223400302081790E6B8E024FE608E
:100719001D2402600302081790E6BAE0B40105C27D
:100729000002081790E6A0E04401F002081790E6DD
:10073900BAE0705990E6BCE0547EFF7E00E0D394A5
:100749008040067C007D0180047C007D00EC4EFE2B
:10075900ED4F24FFF58274113EF583E493FF339541
:10076900E0FEEF24A1FFEE34E68F82F583E054FE2C
:10077900F090E6BCE05480FF131313541FFFE054BC
:100789000F2F90E683F0E04420F002081790E6A0CE
:10079900E04401F08078121225507390E6B8E02405
:1007A900FE60202402706790E6BAE0B40104D2002A
:1007B900805C90E6BAE06402605490E6A0E04401EF
:1007C900F0804B90E6BCE0547EFF7E00E0D394803D
:1007D90040067C007D0180047C007D00EC4EFEED2E
:1007E9004F24FFF58274113EF583E493FF3395E0BE
:1007F900FEEF24A1FFEE34E68F82F583E04401F099
:10080900800C121227500790E6A0E04401F090E610
:05081900A0E04480F0A6
:01081E0022B7
:030033000212199D
:0412190053D8EF3285
:10119800501400C0F9A4B0999282F880988883C648
:0611A800A1868E012F005C
:100DB80090E600E054E74410F000000090E601E0FF
:100DC8004440F000000090E610E0547FF00000007E
:100DD80090E611E0547FF000000090E613E0547FA5
:100DE800F000000090E614E0547FF000000090E668
:100DF80015E0547FF000000090E61274E0F090E6F1
:100E08005CE04402F0E4F530F5317D01FCE5319019
:100E1800F000F0E530A3F090E685E090F002F09065
:100E2800E684E090F003F090E686E090F004F07F2E
:100E3800057E0074002FF58274F03EF583EDF00F07
:100E4800BF00010EE4B507EBEEB404E790E690743A
:100E580002F0E490E691F00DBD00010CED64054C44
:040E680070ABD20099
:010E6C002263
:10081F0090E680E020E70302096AE52F120EDA085E
:10082F00470009100108860208D10309100408D1F6
:10083F0005091F0600000A15E5AA30E103020A1593
:10084F00E53190F000F0E530A3F090E685E090F010
:10085F0002F090E684E090F003F090E686E090F0EE
:10086F0004F090E6907402F0E490E691F00531E523
:10087F00317002053080C1E5AA20E137E53190F0F3
:10088F0000F0E530A3F090E685E090F002F090E6FE
:10089F0084E090F003F090E686E090F004F090E6AC
:1008AF00907402F0E490E691F00531E531700205A5
:1008BF003080C4E5AA30E403020A1590E6997480EB
:1008CF00F022E5AA30E103020A15E53190F000F0BD
:1008DF00E530A3F090E685E090F002F090E684E03A
:1008EF0090F003F090E686E090F004F090E69074BC
:1008FF0004F0E490E691F00531E5317002053080A7
:10090F00C1E5AA30E003020A1590E6917480F02247
:10091F00E5AA20E137E53190F000F0E530A3F09043
:10092F00E685E090F002F090E684E090F003F0901E
:10093F00E686E090F004F090E6907404F0E490E620
:10094F0091F00531E5317002053080C4E5AA30E43D
:10095F0003020A1590E6997480F022E52F14604F78
:10096F00146059147003020A0824036003020A1565
:10097F00E5AA30E103020A15E53190F000F0E53009
:10098F00A3F090E685E090F002F090E684E090F01E
:10099F0003F090E686E090F004F0E490E690F0909B
:1009AF00E6917440F00531E5317002053080C1E504
:1009BF00AA20E05290E6917480F080F3E5AA20E13E
:1009CF0045E53190F000F0E530A3F090E685E0903A
:1009DF00F002F090E684E090F003F090E686E0906D
:1009EF00F004F090E6907403F090E69174FFF00538
:1009FF0031E5317002053080C3E5AA20E00890E6AA
:070A0F00917480F080F322D6
:020CFE00D322FF
:02121D00D322DA
:02121F00D322D8
:0812090090E6BAE0F532D322B1
:1011DB0090E740E532F0E490E68AF090E68B04F07D
:0211EB00D3220D
:10021C0075180190E6BAE0F52F90E680E020E70330
:10022C00020454E52F120EDA024D0002A80102F866
:10023C0002035F03039D0403CB05040806000005BD
:10024C007890E61274E0F000000090E610E0547F25
:10025C00F000000090E611E0547FF000000090E602
:10026C0013E0547FF000000090E614E0547FF0009F
:10027C00000090E615E0547FF000000090E6047456
:10028C0080F00000007402F0000000E4F0000000B8
:10029C0090E6837412F07432F002057890E61274D2
:1002AC00A0F000000090E610E0547FF000000090F9
:1002BC00E611E0547FF000000090E613E0547FF06C
:1002CC0000000090E614E0547FF000000090E6156A
:1002DC00E0547FF000000090E6917480F000000084
:1002EC00F0000000F0000000F002057890E61274B7
:1002FC00E0F000000090E61474A0F000000090E61E
:10030C0010E0547FF000000090E611E0547FF00004
:10031C00000090E613E0547FF000000090E615E03A
:10032C00547FF000000090E6047480F0000000742C
:10033C0002F0000000E4F000000090E6837412F07C
:10034C007432F090E6997480F0000000F000000028
:10035C0002057890E61274D8F0000000E490E615DF
:10036C00F090E614F090E613F090E611F090E610A1
:10037C00F000000090E6047480F00000007402F0BD
:10038C00000000E4F000000090E6407403F0020569
:10039C0078E490E615F090E614F090E613F090E611
:1003AC0011F090E610F000000090E6127498F00046
:1003BC00000090E6917480F0000000F00205789047
:1003CC00E61274D8F0000000E490E615F090E61404
:1003DC00F090E613F090E611F090E610F0000000BB
:1003EC0090E6047480F00000007402F0000000E459
:1003FC00F000000090E64004F002057890E61274DC
:10040C00DAF000000090E614749AF0000000E4901A
:10041C00E615F090E613F090E611F090E610F0007F
:10042C00000090E6047480F00000007402F00000FC
:10043C0000E4F000000090E64004F090E69974802F
:10044C00F0000000F0020578E52F14606E147003C4
:10045C0002051614700302054D240360030205788F
:10046C0090E61274E0F000000090E610E0547FF08B
:10047C0000000090E611E0547FF000000090E613BD
:10048C00E0547FF000000090E614E0547FF0000090
:10049C000090E615E0547FF000000090E6047480B4
:1004AC00F00000007402F0000000E4F00000009086
:1004BC00E6837412F07432F002057890E61274A0A0
:1004CC00F000000090E610E0547FF000000090E691
:1004DC0011E0547FF000000090E613E0547FF00030
:1004EC00000090E614E0547FF000000090E615E068
:1004FC00547FF000000090E6917480F0000000F052
:10050C00000000F0000000F0806290E61274D8F059
:10051C00000000E490E615F090E614F090E613F07D
:10052C0090E611F090E610F000000090E604748064
:10053C00F00000007402F0000000E4F00000008005
:10054C002BE490E615F090E614F090E613F090E6AC
:10055C0011F090E610F000000090E6127498F00094
:10056C00000090E6917480F0000000F0E518601B2C
:10057C007400252FF582E43414AB82FA7D017F21BF
:0C058C0012114C7F21121043E4F518D32B
:010598002240
:1011ED0090E740E52FF0E490E68AF090E68B04F06E
:0211FD00D322FB
:02122100D322D6
:02122300D322D4
:02122500D322D2
:02122700D322D0
:10116800C0E0C083C082D2015391EF90E65D740164
:08117800F0D082D083D0E032F8
:1011AF00C0E0C083C0825391EF90E65D7404F0D02D
:0611BF0082D083D0E03273
:1011C500C0E0C083C0825391EF90E65D7402F0D019
:0611D50082D083D0E0325D
:10100D00C0E0C083C082852925852A268526828554
:10101D002583A37402F085212785222885288285C2
:10102D002783A37407F05391EF90E65D7410F0D011
:06103D0082D083D0E032F6
:10118000C0E0C083C082D2035391EF90E65D740843
:08119000F0D082D083D0E032E0
:10008000C0E0C083C08290E680E030E7288521256B
:10009000852226852682852583A37402F08529275B
:1000A000852A28852882852783A37407F090E64057
:1000B0007403F0800C852925852A26852127852231
:1000C000285391EF90E65D7420F0D082D083D0E089
:0100D00032FD
:011229003292
:01122A003291
:01122B003290
:01122C00328F
:01122D00328E
:01122E00328D
:100FD200C0E0C083C082C0D0E52F24FE601924FE89
:100FE200600824FE601124057018E5AA20E0139021
:100FF200E6917480F0800BE5AA20E40690E69974ED
:0B10020080F0D0D0D082D083D0E0324C
:01122F00328C
:01123000328B
:01123100328A
:011232003289
:011233003288
:011234003287
:011235003286
:011236003285
:011237003284
:011238003283
:011239003282
:01123A003281
:01123B003280
:01123C00327F
:01123D00327E
:01123E00327D
:01123F00327C
:01124000327B
:01124100327A
:011242003279
:011243003278
:011244003277
:011245003276
:011246003275
:011247003274
:011248003273
:011249003272
:01124A003271
:01124B003270
:03004300020D00AB
:03005300020D009B
:100D0000021168000211C5000211AF00021180003B
:100D100002100D00020080000212290002122A00B7
:100D200002122B0002122C0002122D0002122E00C1
:100D3000020FD20002122F00021230000212310004
:100D40000212320002122A00021233000212340090
:100D50000212350002123600021237000212380069
:100D60000212390002122A0002122A0002122A007C
:100D700002123A0002123B0002123C0002123D0035
:100D800002123E0002123F00021240000212410015
:100D900002124200021243000212440002124500F5
:100DA00002124600021247000212480002124900D5
:080DB00002124A0002124B007E
:100CD20090E682E030E004E020E60B90E682E0302D
:100CE200E119E030E71590E680E04401F07F147EE0
:0C0CF20000120F8C90E680E054FEF0220F
:10110B0090E682E044C0F090E681F0438701000056
:04111B0000000022AE
:1000D10030040990E680E0440AF0800790E680E071
:1000E1004408F07FDC7E05120F8C90E65D74FFF012
:0F00F10090E65FF05391EF90E680E054F7F02235
:08121100E4F51FD2E9D2AF227F
:1010430090E678E020E6F9C2E990E678E04480F0A3
:10105300EF25E090E679F090E678E030E0F990E66D
:1010630078E04440F090E678E020E6F990E678E016
:0610730030E1D6D2E922B3
:1010AD00A90790E678E020E6F9E51F702390E67831
:1010BD00E04480F0E925E090E679F08D1AAF03A9C0
:1010CD0007751B018A1C891DE4F51E751F01D322AE
:0210DD00C3222C
:10107900A90790E678E020E6F9E51F702590E67863
:10108900E04480F0E925E0440190E679F08D1AAF5B
:1010990003A907751B018A1C891DE4F51E751F0329
:0410A900D322C32269
:03004B00020BCADB
:100BCA00C0E0C083C082C085C084C086758600C06C
:100BDA00D075D000C000C001C002C003C006C00763
:100BEA0090E678E030E206751F06020CB490E678CB
:100BFA00E020E10CE51F64026006751F07020CB4D1
:100C0A00E51F24FE605F14603624FE7003020CA503
:100C1A0024FC7003020CB124086003020CB4AB1B61
:100C2A00AA1CA91DAF1E051E8F82758300120E6DA8
:100C3A0090E679F0E51E651A7070751F05806B9055
:100C4A00E679E0AB1BAA1CA91DAE1E8E8275830035
:100C5A00120E9A751F02E51A6401704E90E678E04A
:100C6A004420F08045E51A24FEB51E0790E678E098
:100C7A004420F0E51A14B51E0A90E678E04440F0E4
:100C8A00751F0090E679E0AB1BAA1CA91DAE1E8E4B
:100C9A0082758300120E9A051E800F90E678E04452
:100CAA0040F0751F008003751F005391DFD007D0F5
:100CBA0006D003D002D001D000D0D0D086D084D0C4
:080CCA0085D082D083D0E03216
:0210DF00A9075F
:1010E100AE2DAF2E8F828E83A3E064037017AD0106
:1010F10019ED7001228F828E83E07C002FFDEC3E82
:09110100FEAF0580DF7E007F00D7
:01110A0022C2
:10113000121079E51F24FA600E146006240770F37C
:0C114000D322E4F51FD322E4F51FD322D4
:10114C001210ADE51F24FA600E146006240770F32C
:0C115C00D322E4F51FD322E4F51FD322B8
:100F8C008E188F1990E600E054187012E5192401A0
:100F9C00FFE43518C313F518EF13F519801590E617
:100FAC0000E05418FFBF100BE51925E0F519E51802
:100FBC0033F518E5191519AE18700215184E6005A1
:060FCC0012111F80EE224D
:10111F007400F58690FDA57C05A3E582458370F9E3
:01112F00229D
:03000000020F00EC
:0C0F0000787FE4F6D8FD758132020F47BF
:100E6D00BB010CE58229F582E5833AF583E022503A
:100E7D0006E92582F8E622BBFE06E92582F8E22284
:0D0E8D00E58229F582E5833AF583E493229E
:100E9A00F8BB010DE58229F582E5833AF583E8F08E
:100EAA00225006E92582C8F622BBFE05E92582C83A
:020EBA00F22222
:0D0EBC00EF2BFFEE3AFEED39FDEC38FC2285
:100EC900EB9FF5F0EA9E42F0E99D42F0E89C45F07F
:010ED90022F6
:100EDA00D083D082F8E4937012740193700DA3A3A7
:100EEA0093F8740193F5828883E4737402936860BB
:060EFA00EFA3A3A380DFBB
:100F0C00020A16E493A3F8E493A34003F68001F2DB
:100F1C0008DFF48029E493A3F85407240CC8C333E6
:100F2C00C4540F4420C8834004F456800146F6DFB5
:100F3C00E4800B0102040810204080901198E47E9C
:100F4C00019360BCA3FF543F30E509541FFEE493AA
:100F5C00A360010ECF54C025E060A840B8E493A371
:100F6C00FAE493A3F8E493A3C8C582C8CAC583CA9C
:100F7C00F0A3C8C582C8CAC583CADFE9DEE780BE54
:0111AE000040
:00000001FF
