:0A04F50000010202030304040505E0
:1002B700E4F513F512F511F510C203C200C202C22C
:1002C7000112069C7E067F008E238F24752B0675F0
:1002D7002C1275210675221C752906752A4A752D5B
:1002E70006752E78EE54C070030203B875140075B6
:1002F70015808E168F17C3749A9FFF74069ECF249E
:1003070002CF3400FEE48F0F8E0EF50DF50CF50BC2
:10031700F50AF509F508AF0FAE0EAD0DAC0CAB0B3A
:10032700AA0AA909A808C31208D15033E517250B53
:10033700F582E516350AF583E0FFE515250BF5820D
:10034700E514350AF583EFF0E50B2401F50BE435E9
:100357000AF50AE43509F509E43508F50880B78593
:10036700142385152474002480FF740634FFFEC30C
:10037700E52C9FF52CE52B9EF52BC3E5269FF5264F
:10038700E5259EF525C3E5289FF528E5279EF52752
:10039700C3E5229FF522E5219EF521C3E52A9FF5B6
:1003A7002AE5299EF529C3E52E9FF52EE52D9EF515
:1003B7002DD2E843D82090E668E04409F090E65C47
:1003C700E0443DF0D2AF90E680E020E105D2041290
:1003D700076990E680E054F7F0538EF8C2031204E1
:1003E7001E300105120080C2013003F21205FE50D3
:1003F700EDC20312081720001690E682E030E704EA
:10040700E020E1EF90E682E030E604E020E0E4124D
:07041700079812090280C7DB
:1008980090E60AE054F0600B90E509E030E402D3FA
:0508A80022C322D3224F
:1000800090E6B9E0700302013F1470030201BC2442
:10009000FE700302023F24FB700302013914700357
:1000A00002013314700302012714700302012D248E
:1000B0000560030202A312090440030202AF90E6A6
:1000C000BBE024FE602714603824FD601114602713
:1000D00024067050E52390E6B3F0E524803C120836
:1000E00098503EE52B90E6B3F0E52C802DE5259069
:1000F000E6B3F0E5268023E52790E6B3F0E5288017
:100100001990E6BAE0FF1207C4AA06A9077B01EA24
:10011000494B600DEE90E6B3F0EF90E6B4F00202CA
:10012000AF02029E02029E1208BF0202AF1208F640
:100130000202AF1208EE0202AF1208AD0202AF12C5
:10014000090640030202AF90E6B8E0247F60151470
:10015000601924027063A200E43325E0FFA202E4E8
:10016000334F8041E490E740F0803F90E6BCE0549C
:100170007EFF7E00E0D394807C0040047D018002FD
:100180007D00EC4EFEED4F24F5F58274043EF583C0
:10019000E493FF3395E0FEEF24A1FFEE34E68F8277
:1001A000F583E0540190E740F0E4A3F090E68AF094
:1001B00090E68B7402F00202AF02029E1209084020
:1001C000030202AF90E6B8E024FE6016240260034A
:1001D0000202AF90E6BAE0B40105C2000202AF022B
:1001E000029E90E6BAE0705590E6BCE0547EFF7E39
:1001F00000E0D394807C0040047D0180027D00EC0F
:100200004EFEED4F24F5F58274043EF583E493FF32
:100210003395E0FEEF24A1FFEE34E68F82F583E014
:1002200054FEF090E6BCE05480131313541FFFE01B
:10023000540F2F90E683F0E04420F08072805F122C
:10024000090A506B90E6B8E024FE60192402704E53
:1002500090E6BAE0B40104D200805490E6BAE064BB
:1002600002604C803990E6BCE0547EFF7E00E0D313
:1002700094807C0040047D0180027D00EC4EFEED08
:100280004F24F5F58274043EF583E493FF3395E043
:10029000FEEF24A1FFEE34E68F82F583800D90E619
:1002A000A080081207EF500790E6A0E04401F0900C
:0602B000E6A0E04480F02E
:0102B6002225
:030033000208FEC2
:0408FE0053D8EF32AA
:10069C0090E600E054E74410F090E601E04440F0AE
:1006AC0090E61074A0F090E611F000000090E612B5
:1006BC0074A2F000000090E61374A0F0000000900B
:1006CC00E61474E2F000000090E61574E0F000000F
:1006DC000090E6917480F0000000F000000090E6BD
:0A06EC0095F0000000F043AF01227A
:10041E00E5AA20E066E5AA20E56174F0F59A74007D
:10042E00F59B74F8F59D7400F59E90E690E0FE90B5
:10043E00E691E07C002400F51BEC3EF51AE4F5187D
:10044E00F519C3E519951BE518951A501290E67B20
:10045E00E090E67CF00519E51970E7051880E39049
:10046E00E690E090E698F000000090E691E090E6CD
:10047E0099F000000090E6917480F0E5AA20E26603
:10048E00E5AA20E76174F4F59A7400F59B74FCF507
:10049E009D7400F59E90E694E0FE90E695E07C005B
:1004AE002400F51BEC3EF51AE4F518F519C3E51911
:1004BE00951BE518951A501290E67BE090E67CF0BD
:1004CE000519E51970E7051880E390E694E090E6CB
:1004DE009CF000000090E695E090E69DF000000094
:0604EE0090E6957480F019
:0104F40022E5
:0205FE00D32206
:02090200D322FE
:02090400D322FC
:0808EE0090E6BAE0F51DD322EB
:1008AD0090E740E51DF0E490E68AF090E68B04F0C9
:0208BD00D32244
:0808F60090E6BAE0F51CD322E4
:1008BF0090E740E51CF0E490E68AF090E68B04F0B8
:0208CF00D32232
:02090600D322FA
:02090800D322F8
:02090A00D322F6
:1007EF0090E6B9E0242F600D04701990E604E0FF45
:1007FF00430780800890E604E0FF53077F00000066
:07080F00EFF08002D322C3C9
:0108160022BF
:10083C00C0E0C083C082D2015391EF90E65D740199
:08084C00F0D082D083D0E0322D
:10086C00C0E0C083C0825391EF90E65D7404F0D079
:06087C0082D083D0E032BF
:10088200C0E0C083C0825391EF90E65D7402F0D065
:0608920082D083D0E032A9
:10073300C0E0C083C082852925852A268526828537
:100743002583A37402F085212785222885288285A5
:100753002783A37407F05391EF90E65D7410F0D0F4
:0607630082D083D0E032D9
:10085400C0E0C083C082D2035391EF90E65D740878
:08086400F0D082D083D0E03215
:1006F600C0E0C083C08290E680E030E720852125F7
:10070600852226852682852583A37402F0852927DE
:10071600852A28852882852783A37407F05391EFBD
:0D07260090E65D7420F0D082D083D0E032E8
:0104FF0032CA
:01090C0032B8
:01090D0032B7
:01090E0032B6
:01090F0032B5
:0109100032B4
:0109110032B3
:0109120032B2
:0109130032B1
:0109140032B0
:0109150032AF
:0109160032AE
:0109170032AD
:0109180032AC
:0109190032AB
:01091A0032AA
:01091B0032A9
:01091C0032A8
:01091D0032A7
:01091E0032A6
:01091F0032A5
:0109200032A4
:0109210032A3
:0109220032A2
:0109230032A1
:0109240032A0
:01092500329F
:01092600329E
:01092700329D
:01092800329C
:01092900329B
:01092A00329A
:01092B003299
:01092C003298
:01092D003297
:01092E003296
:100600001201000200000040B404041000000102C6
:1006100000010A06000200000040010009022E004D
:1006200001010080320904000004FF0000000705FA
:10063000020200020007050402000200070586020C
:100640000002000705880200020009022E000101D5
:100650000080320904000004FF00000007050202C8
:100660004000000705040240000007058602400024
:10067000000705880240000004030904100343003A
:100680007900700072006500730073000E0345006E
:0C0690005A002D005500530042000000ED
:03004300020500B3
:03005300020500A3
:1005000002083C000208820002086C000208540045
:10051000020733000206F6000204FF0002090C0085
:1005200002090D0002090E0002090F000209100065
:100530000209110002091200020913000209140045
:100540000209150002090C00020916000209170031
:10055000020918000209190002091A0002091B0009
:1005600002091C0002090C0002090C0002090C001F
:1005700002091D0002091E0002091F0002092000D5
:1005800002092100020922000209230002092400B5
:100590000209250002092600020927000209280095
:1005A0000209290002092A0002092B0002092C0075
:0805B00002092D0002092E00D2
:1007980090E682E030E004E020E60B90E682E0306C
:1007A800E119E030E71590E680E04401F07F147E1F
:0C07B800001205B890E680E054FEF0222C
:1007690030040990E680E0440AF0800790E680E0D2
:100779004408F07FDC7E051205B890E65D74FFF051
:0F07890090E65FF05391EF90E680E054F7F02296
:0207C400A90783
:1007C600AE2DAF2E8F828E83A3E064037017AD012A
:1007D60019ED7001228F828E83E07C002FFDEC3EA6
:0807E600FEAF0580DFE4FEFF19
:0107EE0022E8
:1008170090E682E044C0F090E681F0438701000053
:0408270000000022AB
:1005B8008E188F1990E600E054187012E51924017E
:1005C800FFE43518C313F518EF13F519801590E6F5
:1005D80000E05418FFBF100BE51925E0F519E518E0
:1005E80033F518E5191519AE18700215184E60057F
:0605F80012082B80EE2228
:10082B007400F58690FDA57C05A3E582458370F9E0
:01083B00229A
:030000000208E211
:0C08E200787FE4F6D8FD75812E0202B785
:1008D100EB9FF5F0EA9E42F0E99D42F0E89C45F07D
:0108E10022F4
:00000001FF
