:0A09300000010202030304040505A0
:1002B700E4F513F512F511F510C203C200C202C22C
:1002C7000112041E7E077F008E238F24752B07756E
:1002D7002C1275210775221C752907752A4A752D59
:1002E70007752E78EE54C070030203B875140075B5
:1002F70015808E168F17C3749A9FFF74079ECF249D
:1003070002CF3400FEE48F0F8E0EF50DF50CF50BC2
:10031700F50AF509F508AF0FAE0EAD0DAC0CAB0B3A
:10032700AA0AA909A808C312091F5033E517250B04
:10033700F582E516350AF583E0FFE515250BF5820D
:10034700E514350AF583EFF0E50B2401F50BE435E9
:100357000AF50AE43509F509E43508F50880B78593
:10036700142385152474002480FF740734FFFEC30B
:10037700E52C9FF52CE52B9EF52BC3E5269FF5264F
:10038700E5259EF525C3E5289FF528E5279EF52752
:10039700C3E5229FF522E5219EF521C3E52A9FF5B6
:1003A7002AE5299EF529C3E52E9FF52EE52D9EF515
:1003B7002DD2E843D82090E668E04409F090E65C47
:1003C700E0443DF0D2AF90E680E020E105D2041290
:1003D70007DF90E680E054F7F0538EF8C20312046B
:1003E700E5300105120080C2013003F21205FE500C
:1003F700EDC20312086520001690E682E030E7049C
:10040700E020E1EF90E682E030E604E020E0E4124D
:07041700080E12094A80C71C
:1008E60090E60AE054F0600B90E509E030E402D3AC
:0508F60022C322D32201
:1000800090E6B9E0700302013F1470030201BC2442
:10009000FE700302023F24FB700302013914700357
:1000A00002013314700302012714700302012D248E
:1000B0000560030202A312094C40030202AF90E65E
:1000C000BBE024FE602714603824FD601114602713
:1000D00024067050E52390E6B3F0E524803C120836
:1000E000E6503EE52B90E6B3F0E52C802DE525901B
:1000F000E6B3F0E5268023E52790E6B3F0E5288017
:100100001990E6BAE0FF12083AAA06A9077B01EAAD
:10011000494B600DEE90E6B3F0EF90E6B4F00202CA
:10012000AF02029E02029E12090D0202AF120942A4
:100130000202AF12093A0202AF1208FB0202AF122A
:10014000094E40030202AF90E6B8E0247F60151428
:10015000601924027063A200E43325E0FFA202E4E8
:10016000334F8041E490E740F0803F90E6BCE0549C
:100170007EFF7E00E0D394807C0040047D018002FD
:100180007D00EC4EFEED4F2430F58274093EF58380
:10019000E493FF3395E0FEEF24A1FFEE34E68F8277
:1001A000F583E0540190E740F0E4A3F090E68AF094
:1001B00090E68B7402F00202AF02029E12095040D8
:1001C000030202AF90E6B8E024FE6016240260034A
:1001D0000202AF90E6BAE0B40105C2000202AF022B
:1001E000029E90E6BAE0705590E6BCE0547EFF7E39
:1001F00000E0D394807C0040047D0180027D00EC0F
:100200004EFEED4F2430F58274093EF583E493FFF2
:100210003395E0FEEF24A1FFEE34E68F82F583E014
:1002200054FEF090E6BCE05480131313541FFFE01B
:10023000540F2F90E683F0E04420F08072805F122C
:100240000952506B90E6B8E024FE60192402704E0B
:1002500090E6BAE0B40104D200805490E6BAE064BB
:1002600002604C803990E6BCE0547EFF7E00E0D313
:1002700094807C0040047D0180027D00EC4EFEED08
:100280004F2430F58274093EF583E493FF3395E003
:10029000FEEF24A1FFEE34E68F82F583800D90E619
:1002A000A08008120954500790E6A0E04401F090A5
:0602B000E6A0E04480F02E
:0102B6002225
:030033000206FBC7
:0406FB0053D8EF32AF
:10041E0090E600E054E74410F090E601E04440F02E
:10042E0090E61074A0F090E611F000000090E61235
:10043E0074A2F000000090E61374A0F0000000908B
:10044E00E61474E2F000000090E61574E0F000008F
:10045E000090E6917480F000000090E695F00000A8
:10046E000090E691F000000090E695F0E4FFFEEFBC
:10047E002402FD74002FF58274F83EF583EDF00F23
:10048E00BF00010EE4B507E7EEB402E300000090F2
:10049E00E6987402F0000000E490E699F0FEFFEF9B
:1004AE002402FD74002FF58274F83EF583EDF00FF3
:1004BE00BF00010EE4B507E7EEB402E300000090C2
:1004CE00E6987402F0000000E490E699F0F51DF550
:0604DE001E43AF01D20035
:0104E40022F5
:1004E500E5AA20E00900000090E6917480F0E5AAF5
:1004F50020E51100000090E6987402F0000000E489
:1005050090E699F0E5AA20E24E74F4F59A7400F5A8
:100515009B7410F59D7400F59E90E694E0FE90E6C0
:1005250095E07C002400F51EEC3EF51DE4F518F57C
:1005350019C3E519951EE518951D501290E67BE047
:1005450090E67CF00519E51970E7051880E30000D1
:100555000090E6957480F0E5AA20E74AE51E451D62
:1005650060447410F59A7400F59B74FCF59D740055
:10057500F59EE4F518F519C3E519951EE518951DC1
:10058500501290E67BE090E67CF00519E51970E7DE
:10059500051880E3000000E51D90E69CF0000000D2
:0605A500E51E90E69DF04A
:0105AB00222D
:0205FE00D32206
:02094A00D322B6
:02094C00D322B4
:08093A0090E6BAE0F51FD3229C
:1008FB0090E740E51FF0E490E68AF090E68B04F079
:02090B00D322F5
:0809420090E6BAE0F51AD32299
:10090D0090E740E51AF0E490E68AF090E68B04F06B
:02091D00D322E3
:02094E00D322B2
:02095000D322B0
:02095200D322AE
:02095400D322AC
:10088A00C0E0C083C082D2015391EF90E65D74014B
:08089A00F0D082D083D0E032DF
:1008BA00C0E0C083C0825391EF90E65D7404F0D02B
:0608CA0082D083D0E03271
:1008D000C0E0C083C0825391EF90E65D7402F0D017
:0608E00082D083D0E0325B
:1006B800C0E0C083C08290E680E030E71485212541
:1006C800852226852927852A28751B02751C008006
:1006D80012852925852A26852127852228751B002C
:1006E800751C405391EF90E65D7410F0D082D08372
:0306F800D0E0321D
:1008A200C0E0C083C082D2035391EF90E65D74082A
:0808B200F0D082D083D0E032C7
:10079C00C0E0C083C08290E680E030E7148521255C
:1007AC00852226852927852A28751B02751C008021
:1007BC0012852925852A26852127852228751B0047
:1007CC00751C405391EF90E65D7420F0D082D0837D
:0307DC00D0E03238
:0106FF0032C8
:01095600326E
:01095700326D
:01095800326C
:01095900326B
:01095A00326A
:01095B003269
:01095C003268
:01095D003267
:01095E003266
:01095F003265
:010960003264
:010961003263
:010962003262
:010963003261
:010964003260
:01096500325F
:01096600325E
:01096700325D
:01096800325C
:01096900325B
:01096A00325A
:01096B003259
:01096C003258
:01096D003257
:01096E003256
:01096F003255
:010970003254
:010971003253
:010972003252
:010973003251
:010974003250
:01097500324F
:01097600324E
:01097700324D
:01097800324C
:100700001201000200000040B404041000000102C5
:1007100000010A06000200000040010009022E004C
:1007200001010080320904000004FF0000000705F9
:10073000020200020007050402000200070586020B
:100740000002000705880200020009022E000101D4
:100750000080320904000004FF00000007050202C7
:100760004000000705040240000007058602400023
:100770000007058802400000040309041003430039
:100780007900700072006500730073000E0345006D
:0C0790005A002D005500530042000000EC
:10080E0090E682E030E004E020E60B90E682E030F5
:10081E00E119E030E71590E680E04401F07F147EA8
:0C082E00001205AC90E680E054FEF022C1
:1007DF0030040990E680E0440AF0800790E680E05C
:1007EF004408F07FDC7E051205AC90E65D74FFF0E7
:0F07FF0090E65FF05391EF90E680E054F7F02220
:02083A00A9070C
:10083C00AE2DAF2E8F828E83A3E064037017AD01B3
:10084C0019ED7001228F828E83E07C002FFDEC3E2F
:08085C00FEAF0580DFE4FEFFA2
:010864002271
:1008650090E682E044C0F090E681F0438701000005
:04087500000000225D
:1005AC008E188F1990E600E054187012E51924018A
:1005BC00FFE43518C313F518EF13F519801590E601
:1005CC0000E05418FFBF100BE51925E0F519E518EC
:1005DC0033F518E5191519AE18700215184E60058B
:0605EC0012087980EE22E6
:100879007400F58690FDA57C05A3E582458370F992
:01088900224C
:03004300020600B2
:03005300020600A2
:1006000002088A000208D0000208BA000208A2000C
:100610000206B80002079C000206FF00020956000D
:1006200002095700020958000209590002095A003C
:1006300002095B0002095C0002095D0002095E001C
:1006400002095F0002095600020960000209610008
:1006500002096200020963000209640002096500E0
:1006600002096600020956000209560002095600F6
:1006700002096700020968000209690002096A00AC
:1006800002096B0002096C0002096D0002096E008C
:1006900002096F000209700002097100020972006C
:1006A000020973000209740002097500020976004C
:0806B00002097700020978003D
:030000000205F204
:0C05F200787FE4F6D8FD75812E0202B778
:10091F00EB9FF5F0EA9E42F0E99D42F0E89C45F02E
:01092F0022A5
:00000001FF
