:0A0938000001020203030404050598
:1002B700E4F513F512F511F510C203C200C202C22C
:1002C700011205837E077F008E238F24752B077508
:1002D7002C1275210775221C752907752A4A752D59
:1002E70007752E78EE54C070030203B875140075B5
:1002F70015808E168F17C3749A9FFF74079ECF249D
:1003070002CF3400FEE48F0F8E0EF50DF50CF50BC2
:10031700F50AF509F508AF0FAE0EAD0DAC0CAB0B3A
:10032700AA0AA909A808C312091B5033E517250B08
:10033700F582E516350AF583E0FFE515250BF5820D
:10034700E514350AF583EFF0E50B2401F50BE435E9
:100357000AF50AE43509F509E43508F50880B78593
:10036700142385152474002480FF740734FFFEC30B
:10037700E52C9FF52CE52B9EF52BC3E5269FF5264F
:10038700E5259EF525C3E5289FF528E5279EF52752
:10039700C3E5229FF522E5219EF521C3E52A9FF5B6
:1003A7002AE5299EF529C3E52E9FF52EE52D9EF515
:1003B7002DD2E843D82090E668E04409F090E65C47
:1003C700E0443DF0D2AF90E680E020E105D2041290
:1003D70005CD90E680E054F7F0538EF8C20312047F
:1003E7001E300105120080C2013003F21206FE50D2
:1003F700EDC20312086120001690E682E030E704A0
:10040700E020E1EF90E682E030E604E020E0E4124D
:07041700080A12095280C718
:1008E20090E60AE054F0600B90E509E030E402D3B0
:0508F20022C322D32205
:1000800090E6B9E0700302013F1470030201BC2442
:10009000FE700302023F24FB700302013914700357
:1000A00002013314700302012714700302012D248E
:1000B0000560030202A312095440030202AF90E656
:1000C000BBE024FE602714603824FD601114602713
:1000D00024067050E52390E6B3F0E524803C120836
:1000E000E2503EE52B90E6B3F0E52C802DE525901F
:1000F000E6B3F0E5268023E52790E6B3F0E5288017
:100100001990E6BAE0FF120836AA06A9077B01EAB1
:10011000494B600DEE90E6B3F0EF90E6B4F00202CA
:10012000AF02029E02029E1209090202AF12094AA0
:100130000202AF1209420202AF1208F70202AF1226
:10014000095640030202AF90E6B8E0247F60151420
:10015000601924027063A200E43325E0FFA202E4E8
:10016000334F8041E490E740F0803F90E6BCE0549C
:100170007EFF7E00E0D394807C0040047D018002FD
:100180007D00EC4EFEED4F2438F58274093EF58378
:10019000E493FF3395E0FEEF24A1FFEE34E68F8277
:1001A000F583E0540190E740F0E4A3F090E68AF094
:1001B00090E68B7402F00202AF02029E12095840D0
:1001C000030202AF90E6B8E024FE6016240260034A
:1001D0000202AF90E6BAE0B40105C2000202AF022B
:1001E000029E90E6BAE0705590E6BCE0547EFF7E39
:1001F00000E0D394807C0040047D0180027D00EC0F
:100200004EFEED4F2438F58274093EF583E493FFEA
:100210003395E0FEEF24A1FFEE34E68F82F583E014
:1002200054FEF090E6BCE05480131313541FFFE01B
:10023000540F2F90E683F0E04420F08072805F122C
:10024000095A506B90E6B8E024FE60192402704E03
:1002500090E6BAE0B40104D200805490E6BAE064BB
:1002600002604C803990E6BCE0547EFF7E00E0D313
:1002700094807C0040047D0180027D00EC4EFEED08
:100280004F2438F58274093EF583E493FF3395E0FB
:10029000FEEF24A1FFEE34E68F82F583800D90E619
:1002A000A0800812095C500790E6A0E04401F0909D
:0602B000E6A0E04480F02E
:0102B6002225
:030033000205FCC7
:0405FC0053D8EF32AF
:1005830090E61074A0F090E611F000000090E612DF
:1005930074A2F000000090E61374A0F00000009035
:1005A300E61474E2F000000090E61574E0F0000039
:1005B3000090E6917480F0000000F000000090E6E7
:0A05C30095F0000000F043AF0122A4
:10041E00E5AA30E0030204D0E5AA30E5030204D0D9
:10042E0074F0F59A7400F59B759D28E4F59E90E6A0
:10043E0090E0FE90E691E07C002400F51BEC3EF58A
:10044E001AE4F518F519C3E519951BE518951A5018
:10045E001290E67BE090E67CF00519E51970E70551
:10046E001880E3759A28E4F59B74F8F59D7400F5F1
:10047E009E90E690E0FE90E691E07C002400F51B55
:10048E00EC3EF51AE4F518F519C3E519951BE518B8
:10049E00951A501290E67BE090E67CF00519E5196E
:1004AE0070E7051880E390E690E090E698F0000083
:1004BE000090E691E090E699F000000090E69174CD
:1004CE0080F0E5AA30E203020582E5AA30E70302D6
:1004DE00058274F4F59A7400F59B759D2AE4F59ED9
:1004EE0090E694E0FE90E695E07C002400F51BEC8F
:1004FE003EF51AE4F518F519C3E519951BE518959F
:10050E001A501290E67BE090E67CF00519E5197022
:10051E00E7051880E3759A2AE4F59B74FCF59D7443
:10052E0000F59E90E694E0FE90E695E07C002400B7
:10053E00F51BEC3EF51AE4F518F519C3E519951BF4
:10054E00E518951A501290E67BE090E67CF00519BE
:10055E00E51970E7051880E390E694E090E69CF0CC
:10056E0000000090E695E090E69DF000000090E619
:04057E00957480F000
:010582002256
:0206FE00D32205
:02095200D322AE
:02095400D322AC
:0809420090E6BAE0F51DD32296
:1008F70090E740E51DF0E490E68AF090E68B04F07F
:02090700D322F9
:08094A0090E6BAE0F51CD3228F
:1009090090E740E51CF0E490E68AF090E68B04F06D
:02091900D322E7
:02095600D322AA
:02095800D322A8
:02095A00D322A6
:02095C00D322A4
:10088600C0E0C083C082D2015391EF90E65D74014F
:08089600F0D082D083D0E032E3
:1008B600C0E0C083C0825391EF90E65D7404F0D02F
:0608C60082D083D0E03275
:1008CC00C0E0C083C0825391EF90E65D7402F0D01B
:0608DC0082D083D0E0325F
:10079C00C0E0C083C08290E680E030E70E85212562
:1007AC00852226852927852A28800C852925852AB6
:1007BC00268521278522285391EF90E65D7410F051
:0707CC00D082D083D0E0329F
:10089E00C0E0C083C082D2035391EF90E65D74082E
:0808AE00F0D082D083D0E032CB
:1007D300C0E0C083C08290E680E030E70E8521252B
:1007E300852226852927852A28800C852925852A7F
:1007F300268521278522285391EF90E65D7420F00A
:07080300D082D083D0E03267
:01095E003266
:01095F003265
:010960003264
:010961003263
:010962003262
:010963003261
:010964003260
:01096500325F
:01096600325E
:01096700325D
:01096800325C
:01096900325B
:01096A00325A
:01096B003259
:01096C003258
:01096D003257
:01096E003256
:01096F003255
:010970003254
:010971003253
:010972003252
:010973003251
:010974003250
:01097500324F
:01097600324E
:01097700324D
:01097800324C
:01097900324B
:01097A00324A
:01097B003249
:01097C003248
:01097D003247
:01097E003246
:01097F003245
:010980003244
:010981003243
:100700001201000200000040B404041000000102C5
:1007100000010A06000200000040010009022E004C
:1007200001010080320904000004FF0000000705F9
:10073000020200020007050402000200070586020B
:100740000002000705880200020009022E000101D4
:100750000080320904000004FF00000007050202C7
:100760004000000705040240000007058602400023
:100770000007058802400000040309041003430039
:100780007900700072006500730073000E0345006D
:0C0790005A002D005500530042000000EC
:03004300020600B2
:03005300020600A2
:10060000020886000208CC000208B60002089E001C
:1006100002079C000207D30002095E0002095F0086
:100620000209600002096100020962000209630018
:1006300002096400020965000209660002096700F8
:100640000209680002095F000209690002096A00E4
:1006500002096B0002096C0002096D0002096E00BC
:1006600002096F0002095F0002095F0002095F00D2
:100670000209700002097100020972000209730088
:100680000209740002097500020976000209770068
:10069000020978000209790002097A0002097B0048
:1006A00002097C0002097D0002097E0002097F0028
:0806B00002098000020981002B
:10080A0090E682E030E004E020E60B90E682E030F9
:10081A00E119E030E71590E680E04401F07F147EAC
:0C082A00001206B890E680E054FEF022B8
:1005CD0030040990E680E0440AF0800790E680E070
:1005DD004408F07FDC7E051206B890E65D74FFF0EE
:0F05ED0090E65FF05391EF90E680E054F7F02234
:02083600A90710
:10083800AE2DAF2E8F828E83A3E064037017AD01B7
:1008480019ED7001228F828E83E07C002FFDEC3E33
:08085800FEAF0580DFE4FEFFA6
:010860002275
:1008610090E682E044C0F090E681F0438701000009
:040871000000002261
:1006B8008E188F1990E600E054187012E51924017D
:1006C800FFE43518C313F518EF13F519801590E6F4
:1006D80000E05418FFBF100BE51925E0F519E518DF
:1006E80033F518E5191519AE18700215184E60057E
:0606F80012087580EE22DD
:100875007400F58690FDA57C05A3E582458370F996
:010885002250
:0300000002092CC6
:0C092C00787FE4F6D8FD75812E0202B73A
:10091B00EB9FF5F0EA9E42F0E99D42F0E89C45F032
:01092B0022A9
:00000001FF
