:1003CF00501000C0F9A4B0999282F880988883C623
:0303DF00A1868E66
:10018800E4F50E750FFF7510011203E37A107B106A
:100198007D017F20120397901010E0FF650FFE8FFE
:1001A8000FE4FFEE604D30E043E50FA8070880023A
:1001B800C313D8FC20E032EF602724FE60151460DA
:1001C8002524027024150EE50ED3940F401B750EDE
:1001D8000F8016050EE50ED3940F400DE4F50E8042
:1001E80008E4F50E8003750E0F751001EEC313FEBB
:1001F8000F80B0E51060957400250EF582E4341088
:10020800AB82FA7D017F211203B37F211202F9E448
:05021800F51002019445
:01021D0022BE
:0803E300E4F50DD2E9D2AF22CE
:1002F900AD0790E678E020E6F9C2E990E678E044B7
:1003090080F0ED25E090E679F090E678E030E0F9CC
:1003190090E678E04440F090E678E020E6F990E64F
:0803290078E030E1D6D2E922B0
:10036500AC0790E678E020E6F9E50D702390E67895
:10037500E04480F0EC25E090E679F08D08AF03A924
:10038500077509018A0A890BE4F50C750D01D3225D
:02039500C32281
:10033100AC0790E678E020E6F9E50D702590E678C7
:10034100E04480F0EC25E0440190E679F08D08AFBF
:1003510003A9077509018A0A890BE4F50C750D03D8
:04036100D322C322BE
:03004B0002008030
:10008000C0E0C083C082C085C084C086758600C0C1
:10009000D075D000C000C001C002C003C006C007B8
:1000A00090E678E030E206750D0602016A90E67887
:1000B000E020E10CE50D64026006750D0702016A9F
:1000C000E50D24FE605F14603624FE700302015BC0
:1000D00024FC70030201672408600302016AAB0973
:1000E000AA0AA90BAF0C050C8F827583001202AA15
:1000F00090E679F0E50C65087070750D05806B90E1
:10010000E679E0AB09AA0AA90BAE0C8E82758300D2
:100110001202D7750D02E5086401704E90E678E092
:100120004420F08045E50824FEB50C0790E678E011
:100130004420F0E50814B50C0A90E678E04440F05D
:10014000750D0090E679E0AB09AA0AA90BAE0C8EFA
:10015000827583001202D7050C800F90E678E04488
:1001600040F0750D008003750D005391DFD007D06E
:1001700006D003D002D001D000D0D0D086D084D019
:0801800085D082D083D0E0326B
:10039700120331E50D24FA600E146006240770F38A
:0C03A700D322E4F50DD322E4F50DD3229F
:1003B300120365E50D24FA600E146006240770F33A
:0C03C300D322E4F50DD322E4F50DD32283
:0300000002021EDB
:0C021E00787FE4F6D8FD758110020265BF
:1002AA00BB010CE58229F582E5833AF583E0225009
:1002BA0006E92582F8E622BBFE06E92582F8E22253
:0D02CA00E58229F582E5833AF583E493226D
:1002D700F8BB010DE58229F582E5833AF583E8F05D
:1002E700225006E92582C8F622BBFE05E92582C809
:0202F700F222F1
:10022A00020188E493A3F8E493A34003F68001F261
:10023A0008DFF48029E493A3F85407240CC8C333D5
:10024A00C4540F4420C8834004F456800146F6DFA4
:10025A00E4800B01020408102040809003CFE47E62
:10026A00019360BCA3FF543F30E509541FFEE49399
:10027A00A360010ECF54C025E060A840B8E493A360
:10028A00FAE493A3F8E493A3C8C582C8CAC583CA8B
:10029A00F0A3C8C582C8CAC583CADFE9DEE780BE43
:0103E200001A
:00000001FF
