:0949AA00676F6F6400646F670021
:10489D0050501BC0F9A4B0999282F880988883C6B5
:1048AD00A1868E5A50018883A7A1868E908BEFE149
:1048BD0087C780ABA38C40AF9287C1CD808999A467
:0448CD00415000FF57
:084000008C0C8D0DAB07AA0624
:10400800751901E4F50EF50FC3E50F950DE50E954D
:104018000C5016EB250FF582EA350EF583E4F00512
:104028000FE50F7002050E80DFE4F50EF50FC3E50E
:104038000F950DE50E950C5023EB250FF582EA350B
:104048000EF583E0600CEB250FFFEA350EFEE4FC6D
:10405800FD22050FE50F7002050E80D2751902E4E6
:10406800F50EF50FC3E50F950DE50E950C5017EB02
:10407800250FF582EA350EF58374FFF0050FE50F7D
:104088007002050E80DEE4F50EF50FC3E50F950D01
:10409800E50E950C5024EB250FF582EA350EF583D5
:1040A800E0F4600CEB250FFFEA350EFEE4FCFD2280
:1040B800050FE50F7002050E80D1751903E4F50EA2
:1040C800F50FC3E50F950DE50E950C5017EB250F71
:1040D800F582EA350EF58374AAF0050FE50F700234
:1040E800050E80DEE4F50EF50FC3E50F950DE50E20
:1040F800950C5025EB250FF582EA350EF583E06423
:10410800AA600CEB250FFFEA350EFEE4FCFD220544
:104118000FE50F7002050E80D0751904E4F50EF551
:104128000FC3E50F950DE50E950C5017EB250FF510
:1041380082EA350EF5837455F0050FE50F70020518
:104148000E80DEE4F50EF50FC3E50F950DE50E952F
:104158000C5025EB250FF582EA350EF583E0645502
:10416800600CEB250FFFEA350EFEE4FCFD22050F7F
:10417800E50F7002050E80D0751905E50D24FFF5D1
:104188000FE50C34FFF50ED3E50F9400E50E94000F
:104198004021E50E75F003A4FFE50F2FFFEB250F77
:1041A800F582EA350EF583EFF0E50F150F7002156D
:1041B8000E80D4E50D24FFF50FE50C34FFF50ED382
:1041C800E50F9400E50E9400402FE50E75F003A46A
:1041D800FFE50F2FFFEB250FF582EA350EF583E09B
:1041E8006F600CEB250FFFEA350EFEE4FCFD22E5BF
:1041F8000F150F7002150E80C6751906E4F50EF539
:104208000FC3E50F950DE50E950C5021E50E75F0E1
:1042180003A4FFE50F2FFFEB250FF582EA350EF516
:1042280083EFF0050FE50F7002050E80D4E4F50E5C
:10423800F50FC3E50F950DE50E950C502FE50E759E
:10424800F003A4FFE50F2FFFEB250FF582EA350EEB
:10425800F583E06F600CEB250FFFEA350EFEE4FCFA
:10426800FD22050FE50F7002050E80C6751907EBD4
:10427800250DFFEA350CFED3EF9400EE942040089C
:10428800EE94F05003024323E4F50EF50FC3E50F57
:10429800950DE50E950C5016EB250FF582EA350EB7
:1042A800F583E4F0050FE50F7002050E80DFEAF5EF
:1042B8009AEBF59BE4F50EF50FC3E50F950DE50EAA
:1042C800950C5019E50E75F003A4FFE50F2FFF902C
:1042D800E67BF0050FE50F7002050E80DCEAF59A23
:1042E800EBF59BE4F50EF50FC3E50F950DE50E957F
:1042F8000C502890E67BE0FDE50E75F003A4FFE581
:104308000F2F6D600CEB250FFFEA350EFEE4FCFD68
:1043180022050FE50F7002050E80CD74FFFFFEFD2C
:01432800FC98
:014329002271
:044708008E0C8F0D77
:10470C00850C0E850D0F850E0C850F0DE4F510E54F
:10471C0010C394045053E50CC4540F7E00540F2462
:10472C001BF582EE3450AB82FA7D017F2112497D5C
:10473C007F211248677F907E011249387A507B00A6
:10474C007D017F2112497D7F211248677FC87E0041
:10475C001249380510E50DC4F8540FC868F50DE57D
:10476C000CC454F048F50C80A67A507B007D017F78
:10477C002112497D7F211248677FF47E011249384E
:02478C00808427
:01478E002208
:06478F008B0C8A0D890E5F
:10479500E4F50FAB0CAA0DA90E850F8275830012E7
:1047A5004802FF6040545FFF3395E0FE74C02FF56B
:1047B50082744F3EAB82FA7D017F2112497D7F21B4
:1047C5001248677F907E011249387A507B007D013F
:1047D5007F2112497D7F211248677FC87E001249DB
:1047E50038050F80AE7A507B007D017F2112497D0F
:0C47F5007F211248677FF47E01124938D2
:014801002294
:10432A00E490502BF0A304F01249B390E600741005
:10433A00F0A374F6F043AF017A507B1B7D017F2115
:10434A0012497D7F2112486790502CE07003024584
:10435A005F7D807C1F7F807E001240008F0B8E0A5B
:10436A008D098C0874FFFFFEFDFCAB0BAA0AA90994
:10437A00A808C31248516007AE0AAF0B1247087D5E
:10438A00007C207F007E201240008F0B8E0A8D0950
:10439A008C0874FFFFFEFDFCAB0BAA0AA909A8084A
:1043AA00C31248516007AE0AAF0B1247087D007C62
:1043BA002F7F007E511240008F0B8E0A8D098C08C8
:1043CA0074FFFFFEFDFCAB0BAA0AA909A808C312D9
:1043DA0048516007AE0AAF0B1247087DFF7C617F28
:1043EA00007E801240008F0B8E0A8D098C0874FFA4
:1043FA00FFFEFDFCAB0BAA0AA909A808C312485183
:10440A006007AE0AAF0B1247087D007C027F007E70
:10441A00F01240008F0B8E0A8D098C0874FFFFFE84
:10442A00FDFCAB0BAA0AA909A808C31248516007E8
:10443A00AE0AAF0B1247087D007C027F007EF412A1
:10444A0040008F0B8E0A8D098C0874FFFFFEFDFC5D
:10445A00AB0BAA0AA909A808C31248516007AE0AF9
:10446A00AF0B1247087D007C027F007EF8124000E5
:10447A008F0B8E0A8D098C0874FFFFFEFDFCAB0BB7
:10448A00AA0AA909A808C31248516007AE0AAF0BC5
:10449A001247087D007C027F007EFC1240008F0BD1
:1044AA008E0A8D098C0874FFFFFEFDFCAB0BAA0A6D
:1044BA00A909A808C31248516007AE0AAF0B1247F0
:1044CA000890E6017402F07D7F7C007F007EE41292
:1044DA0040008F0B8E0A8D098C0874FFFFFEFDFCCD
:1044EA00AB0BAA0AA909A808C31248516007AE0A69
:1044FA00AF0B1247087DBF7C007F407EE712400069
:10450A008F0B8E0A8D098C0874FFFFFEFDFCAB0B26
:10451A00AA0AA909A808C31248516007AE0AAF0B34
:10452A001247087F807E007D007C208D828C83E488
:10453A0093048F828E83F08D828C83E493FB8F8227
:10454A008E83E06B70030243527BFF7A4979AA1289
:10455A00478F0243527BFF7A4979AF12478F7A50CD
:09456A007B2B7D017F20124961C9
:014573002225
:104938008E118F1290E600E030E30BE51225E0F5CA
:1049480012E51133F511E5121512AE1170021511A9
:094958004E600512499980EE221F
:0849B300E4F518D2E9D2AF22AD
:1048670090E678E020E6F9C2E990E678E04480F047
:10487700EF25E090E679F090E678E030E0F990E611
:1048870078E04440F090E678E020E6F990E678E0BA
:0648970030E1D6D2E92257
:10490600A90790E678E020E6F9E518702390E678A6
:10491600E04480F0E925E090E679F08D13AF03A935
:10492600077514018A158916E4F517751801D3223F
:02493600C3229A
:1048D200A90790E678E020E6F9E518702590E678D9
:1048E200E04480F0E925E0440190E679F08D13AFD1
:1048F20003A9077514018A158916E4F517751803BB
:04490200D322C322D7
:03004B00024574F7
:10457400C0E0C083C082C085C084C086758600C088
:10458400D075D000C000C001C002C003C006C0077F
:1045940090E678E030E20675180602465E90E6780A
:1045A400E020E10CE5186402600675180702465E17
:1045B400E51824FE605F14603624FE700302464F43
:1045C40024FC700302465B2408600302465EAB14BD
:1045D400AA15A916AF1705178F8275830012480212
:1045E40090E679F0E51765137070751805806B9087
:1045F400E679E0AB14AA15A916AE178E827583006E
:1046040012482F751802E5136401704E90E678E0A5
:104614004420F08045E51324FEB5170790E678E0C2
:104624004420F0E51314B5170A90E678E04440F00E
:1046340075180090E679E0AB14AA15A916AE178E8A
:104644008275830012482F0517800F90E678E044A6
:1046540040F075180080037518005391DFD007D01F
:1046640006D003D002D001D000D0D0D086D084D0E0
:0846740085D082D083D0E03232
:104961001248D2E51824FA600E146006240770F389
:0C497100D322E4F518D322E4F518D32279
:10497D00124906E51824FA600E146006240770F338
:0C498D00D322E4F518D322E4F518D3225D
:104999007400F58690FDA57C05A3E582458370F931
:0149A90022EB
:0300000002467C39
:0C467C00787FE4F6D8FD7581190246C372
:10480200BB010CE58229F582E5833AF583E022506B
:1048120006E92582F8E622BBFE06E92582F8E222B5
:0D482200E58229F582E5833AF583E49322CF
:10482F00F8BB010DE58229F582E5833AF583E8F0BF
:10483F00225006E92582C8F622BBFE05E92582C86B
:02484F00F22253
:10485100EB9FF5F0EA9E42F0E99D42F0EC6480C8DE
:0648610064809845F0227E
:1046880002432AE493A3F8E493A34003F68001F2DB
:1046980008DFF48029E493A3F85407240CC8C33333
:1046A800C4540F4420C8834004F456800146F6DF02
:1046B800E4800B010204081020408090489DE47EAD
:1046C800019360BCA3FF543F30E509541FFEE493F7
:1046D800A360010ECF54C025E060A840B8E493A3BE
:1046E800FAE493A3F8E493A3C8C582C8CAC583CAE9
:1046F800F0A3C8C582C8CAC583CADFE9DEE780BEA1
:0148D10000E6
:00000001FF
