:0A0DB200000102020303040405051A
:1005E600E4F52CF52BF52AF529C203C200C202C296
:1005F600011208F97E0A7F008E0A8F0B75120A75A2
:10060600131275080A75091C75100A75114A7514B6
:100616000A751578EE54C070030206EB752D007549
:100626002E808E2F8F30C3749A9FFF740A9ECF241C
:1006360002CF3400FEE48F288E27F526F525F52413
:10064600F523F522F521AF28AE27AD26AC25AB2440
:10065600AA23A922A821C312089D5037E5302524D4
:10066600F582E52F3523F583E0FFE52E2524F58277
:10067600E52D3523F583EFF0E4FAF9F8E5242401B6
:10068600F524EA3523F523E93522F522E83521F567
:100696002180B3852D0A852E0B74002480FF740AF1
:1006A60034FFFEC3E5139FF513E5129EF512C3E56D
:1006B6000D9FF50DE50C9EF50CC3E50F9FF50FE5B7
:1006C6000E9EF50EC3E5099FF509E5089EF508C3DC
:1006D600E5119FF511E5109EF510C3E5159FF5157B
:1006E600E5149EF514D2E843D82090E668E0440964
:1006F600F090E65CE0443DF0D2AF90E680E054F73F
:10070600F0538EF8C2031208FF300105120080C2B2
:10071600013003F21209FE50EDC203120CAD2000A7
:100726001690E682E030E704E020E1EF90E682E012
:0F07360030E604E020E0E4120C56120DD880C724
:010745002291
:100D6D0090E60AE054F0600B90E509E030E402D320
:050D7D0022C322D32275
:1000800090E6B9E0700302016B14700302021424BD
:10009000FE70030202AA24FB7003020165147003C0
:1000A00002015F147003020153147003020159240A
:1000B00005600302031F120DDA400302032B90E6D2
:1000C000BBE024FE603B14605624FD6016146040C3
:1000D00024067075E50A90E6B3F0E50B90E6B4F0FF
:1000E00002032B120D6D500FE51290E6B3F0E513ED
:1000F00090E6B4F002032B90E6A0E04401F0020386
:100100002BE50C90E6B3F0E50D90E6B4F002032B7E
:10011000E50E90E6B3F0E50F90E6B4F002032B9005
:10012000E6BAE0FF120C82AA06A9077B01EA494B56
:10013000600DEE90E6B3F0EF90E6B4F002032B9082
:10014000E6A0E04401F002032B90E6A0E04401F0B9
:1001500002032B120D9402032B120DC402032B1267
:100160000DBC02032B120D8202032B120DDC400387
:1001700002032B90E6B8E0247F602B14603C24023D
:10018000600302020AA200E433FF25E0FFA202E4BA
:10019000334F90E740F0E4A3F090E68AF090E68BCE
:1001A0007402F002032BE490E740F0A3F090E68A9B
:1001B000F090E68B7402F002032B90E6BCE0547ED4
:1001C000FF7E00E0D3948040067C007D0180047CAB
:1001D000007D00EC4EFEED4F24B2F582740D3EF52D
:1001E00083E493FF3395E0FEEF24A1FFEE34E68F26
:1001F00082F583E0540190E740F0E4A3F090E68AB2
:10020000F090E68B7402F002032B90E6A0E044012C
:10021000F002032B120DDE400302032B90E6B8E040
:1002200024FE601D2402600302032B90E6BAE0B4B2
:100230000105C20002032B90E6A0E04401F0020396
:100240002B90E6BAE0705990E6BCE0547EFF7E0049
:10025000E0D3948040067C007D0180047C007D001A
:10026000EC4EFEED4F24B2F582740D3EF583E4931F
:10027000FF3395E0FEEF24A1FFEE34E68F82F58395
:10028000E054FEF090E6BCE05480FF131313541FBB
:10029000FFE0540F2F90E683F0E04420F002032BA0
:1002A00090E6A0E04401F002032B120DE0507C9098
:1002B000E6B8E024FE60202402705B90E6BAE0B469
:1002C0000104D200806590E6BAE06402605D90E6C9
:1002D000A0E04401F0805490E6BCE0547EFF7E0034
:1002E000E0D3948040067C007D0180047C007D008A
:1002F000EC4EFEED4F24B2F582740D3EF583E4938F
:10030000FF3395E0FEEF24A1FFEE34E68F82F58304
:10031000E04401F0801590E6A0E04401F0800C126A
:100320000333500790E6A0E04401F090E6A0E044DB
:0203300080F05B
:0103320022A8
:03003300020DD4E7
:040DD40053D8EF32CF
:0608F900D200120DCC221A
:0108FF0022D6
:0209FE00D32202
:020DD800D32224
:020DDA00D32222
:080DBC0090E6BAE0F51ED32217
:100D820090E740E51EF0E490E68AF090E68B04F0EE
:020D9200D3226A
:080DC40090E6BAE0F51CD32211
:100D940090E740E51CF0E490E68AF090E68B04F0DE
:020DA400D32258
:020DDC00D32220
:020DDE00D3221E
:020DE000D3221C
:1003330090E678E05410FFC4540F4450F51D13E4C5
:1003430033F51F90E6B9E0245EB40B0040030205C9
:10035300E490036275F003A4C58325F0C58373029B
:10036300045C02045C0203D702038302039D0203BD
:10037300BD0204060204560203E00203F302042C46
:1003830090E740E51FF0E490E68AF090E68B04F0F6
:1003930090E6A0E04480F00205E490E600E0FFC4AC
:1003A300540F90E740F0E490E68AF090E68B04F077
:1003B30090E6A0E04480F00205E490E740740FF07B
:1003C300E490E68AF090E68B04F090E6A0E04480A7
:1003D300F00205E490E6BAE0F51D0205E490E67A42
:1003E300E054FEF0E490E68AF090E68BF00205E438
:1003F30090E67AE04401F0E490E68AF090E68BF030
:100403000205E490E7407407F0E490E68AF090E692
:100413008B04F090E6A0E04480F07FE87E031209AD
:10042300B8D204120C270205E490E6B5E054FEF0BE
:1004330090E6BFE090E68AF090E6BEE090E68BF0AF
:1004430090E6BBE090E6B3F090E6BAE090E6B4F055
:100453000205E4751F01431D0190E6BAE075310002
:10046300F532A3E0FEE4EE423190E6BEE0753300E0
:10047300F534A3E0FEE4EE423390E6B8E064C060F6
:100483000302054CE534453370030205E490E6A00E
:10049300E020E1F9C3E5349440E533940050088546
:1004A3003335853436800675350075364090E6B9A8
:1004B300E0B4A335E4F537F538C3E5389536E537C9
:1004C30095355060E5322538F582E5313537F583CA
:1004D300E0FF74402538F582E434E7F583EFF00557
:1004E30038E5387002053780D0E4F537F538C3E5D1
:1004F300389536E5379535501874402538F582E43C
:1005030034E7F58374CDF00538E53870020537809C
:10051300DDAD367AE779407EE77F40AB07AF32AE99
:10052300311208AEE490E68AF090E68BE536F025CA
:1005330032F532E5353531F531C3E5349536F534E9
:10054300E5339535F53302048790E6B8E0644060FF
:10055300030205E4E534453370030205E4E490E661
:100563008AF090E68BF090E6A0E020E1F990E68B2C
:10057300E0753500F53690E6B9E0B4A335E4F53718
:10058300F538C3E5389536E5379535503874402549
:1005930038F582E434E7F583E0FFE5322538F58268
:1005A300E5313537F583EFF00538E5387002053767
:1005B30080D0AD367AE779407EE77F40AB07AF3234
:1005C300AE31120B8CE5362532F532E5353531F592
:1005D30031C3E5349536F534E5339535F533020506
:0205E30057C3FC
:0105E50022F3
:100CD200C0E0C083C08290E6B5E04401F0D2015387
:0F0CE20091EF90E65D7401F0D082D083D0E032C4
:100D4100C0E0C083C0825391EF90E65D7404F0D09F
:060D510082D083D0E032E5
:100D5700C0E0C083C0825391EF90E65D7402F0D08B
:060D670082D083D0E032CF
:100B1E00C0E0C083C08290E680E030E70E85080C0E
:100B2E0085090D85100E85110F800C85100C851111
:100B3E000D85080E85090F5391EF90E65D7410F048
:070B4E00D082D083D0E03219
:100D2900C0E0C083C082D2035391EF90E65D74089E
:080D3900F0D082D083D0E0323B
:100B5500C0E0C083C08290E680E030E70E85080CD7
:100B650085090D85100E85110F800C85100C8511DA
:100B75000D85080E85090F5391EF90E65D7420F001
:070B8500D082D083D0E032E2
:010DE20032DE
:010DE30032DD
:010DE40032DC
:010DE50032DB
:010DE60032DA
:010DE70032D9
:010DE80032D8
:010DE90032D7
:010DEA0032D6
:010DEB0032D5
:010DEC0032D4
:010DED0032D3
:010DEE0032D2
:010DEF0032D1
:010DF00032D0
:010DF10032CF
:010DF20032CE
:010DF30032CD
:010DF40032CC
:010DF50032CB
:010DF60032CA
:010DF70032C9
:010DF80032C8
:010DF90032C7
:010DFA0032C6
:010DFB0032C5
:010DFC0032C4
:010DFD0032C3
:010DFE0032C2
:010DFF0032C1
:010E000032BF
:010E010032BE
:010E020032BD
:010E030032BC
:010E040032BB
:010E050032BA
:060A9C00AB07AA06AC0541
:100AA200E4FDE51F6010EA7E000DEE2400F582E40D
:100AB2003410F583EAF0EBAE050D74002EF582E4F6
:100AC2003410F583EBF0AF050D74002FF582E4349A
:100AD20010F583ECF07A107B00AF1D120D0DAF1DE7
:030AE200120AE60F
:010AE50022EE
:0A0B8C008E398F3A8D3B8A3C8B3D79
:100B9600E4F53EE53EC3953B5020053AE53AAE39CD
:100BA6007002053914FFE53D253EF582E4353CF536
:0A0BB60083E0FD120A9C053E80D981
:010BC0002212
:0A08AE008E398F3A8D3B8A3C8B3D5A
:1008B800E4FDF53EE51F6012E539FF7E000DEE24EC
:1008C80000F582E43410F583EFF0E53AAE050D74D7
:1008D800002EF582E43410F583E53AF07A107B00B7
:1008E800AF1D120D0DAB3DAA3CAD3BAF1D120CF177
:0108F80022DD
:100A00001201000200000040B404041000000102C2
:100A100000010A06000200000040010009022E0049
:100A200001010080320904000004FF0000000705F6
:100A30000202000200070504020002000705860208
:100A40000002000705880200020009022E000101D1
:100A50000080320904000004FF00000007050202C4
:100A60004000000705040240000007058602400020
:100A70000007058802400000040309041003430036
:100A80007900700072006500730073000E0345006A
:0C0A90005A002D005500530042000000E9
:100C560090E682E030E004E020E60B90E682E030A9
:100C6600E119E030E71590E680E04401F07F147E5C
:0C0C7600001209B890E680E054FEF02265
:100C270030040990E680E0440AF0800790E680E00F
:100C37004408F07FDC7E051209B890E65D74FFF08A
:0F0C470090E65FF05391EF90E680E054F7F022D3
:1009B8008E398F3A90E600E054187012E53A240117
:1009C800FFE43539C313F539EF13F53A801590E68E
:1009D80000E05418FFBF100BE53A25E0F53AE53979
:1009E80033F539E53A153AAE39700215394E6005D6
:0609F800120CC180EE228A
:080DCC00E4F51BD2E9D2AF22CD
:100AE600AD0790E678E020E6F9C2E990E678E044C2
:100AF60080F0ED25E090E679F090E678E030E0F9D8
:100B060090E678E04440F090E678E020E6F990E65A
:080B160078E030E1D6D2E922BB
:100BF500AC0790E678E020E6F9E51B702390E678EF
:100C0500E04480F0EC25E090E679F08D16AF03A97D
:100C1500077517018A188919E4F51A751B01D3227E
:020C2500C322E8
:100BC100AC0790E678E020E6F9E51B702590E67821
:100BD100E04480F0EC25E0440190E679F08D16AF19
:100BE10003A9077517018A188919E4F51A751B03FA
:040BF100D322C32226
:03004B0002074663
:10074600C0E0C083C082C085C084C086758600C0F4
:10075600D075D000C000C001C002C003C006C007EB
:1007660090E678E030E206751B0602083090E678DF
:10077600E020E10CE51B64026006751B07020830E9
:10078600E51B24FE605F14603624FE700302082118
:1007960024FC700302082D24086003020830AB17FE
:1007A600AA18A919AF1A051A8F8275830012084E66
:1007B60090E679F0E51A65167070751B05806B90EA
:1007C600E679E0AB17AA18A919AE1A8E82758300CE
:1007D60012087B751B02E5166401704E90E678E000
:1007E6004420F08045E51624FEB51A0790E678E029
:1007F6004420F0E51614B51A0A90E678E04440F075
:10080600751B0090E679E0AB17AA18A919AE1A8EE7
:100816008275830012087B051A800F90E678E04403
:1008260040F0751B008003751B005391DFD007D085
:1008360006D003D002D001D000D0D0D086D084D04C
:0808460085D082D083D0E0329E
:020C8200A907C0
:100C8400AE14AF158F828E83A3E064037017AD0199
:100C940019ED7001228F828E83E07C002FFDEC3EE3
:080CA400FEAF0580DFE4FEFF56
:010CAC002225
:100CF100120BC1E51B24FA600E146006240770F381
:0C0D0100D322E4F51BD322E4F51BD3221F
:100D0D00120BF5E51B24FA600E146006240770F330
:0C0D1D00D322E4F51BD322E4F51BD32203
:100CAD0090E682E044C0F090E681F04387010000B9
:040CBD000000002211
:100CC1007400F58690FDA57C05A3E582458370F946
:010CD1002200
:03004300020900AF
:030053000209009F
:10090000020CD200020D5700020D4100020D290019
:10091000020B1E00020B5500020DE200020DE30067
:10092000020DE400020DE500020DE600020DE700F5
:10093000020DE800020DE900020DEA00020DEB00D5
:10094000020DEC00020DE300020DED00020DEE00C1
:10095000020DEF00020DF000020DF100020DF20099
:10096000020DF300020DE300020DE300020DE300AF
:10097000020DF400020DF500020DF600020DF70065
:10098000020DF800020DF900020DFA00020DFB0045
:10099000020DFC00020DFD00020DFE00020DFF0025
:1009A000020E0000020E0100020E0200020E030001
:0809B000020E0400020E050016
:03000000020DA648
:0C0DA600787FE4F6D8FD75813E0205E67A
:10084E00BB010CE58229F582E5833AF583E022505F
:10085E0006E92582F8E622BBFE06E92582F8E222A9
:0D086E00E58229F582E5833AF583E49322C3
:10087B00F8BB010DE58229F582E5833AF583E8F0B3
:10088B00225006E92582C8F622BBFE05E92582C85F
:02089B00F22247
:10089D00EB9FF5F0EA9E42F0E99D42F0E89C45F0B1
:0108AD002228
:00000001FF
